:020000040800F2
:10000000000003204D0A00082D0A00089D0A000880
:100010009D0A00089D0A00089D0A000800000000D3
:100020000000000000000000000000009D0A000821
:100030009D0A000800000000010A0008F9540008A9
:100040009D0A00089D0A00089D0A00089D0A0008F4
:100050009D0A00089D0A00089D0A00089D0A0008E4
:100060001157000821570008315700089D0A000861
:100070009D0A00089D0A00089D0A00089D0A0008C4
:100080009D0A00089D0A00089D0A00089D0A0008B4
:100090009D0A00089D0A00089D0A00089D0A0008A4
:1000A0009D0A00089D0A00089D0A00089D0A000894
:1000B0009D0A00089D0A00089D0A00089D0A000884
:1000C0009D0A00089D0A00089D0A00089D0A000874
:1000D0009D0A00089D0A0008415700089D0A000873
:1000E0009D0A00089D0A00089D0A00089D0A000854
:1000F0009D0A00089D0A00089D0A00089D0A000844
:100100009D0A00089D0A00089D0A00089D0A000833
:100110009D0A00089D0A00089D0A00089D0A000823
:100120009D0A00089D0A00089D0A00089D0A000813
:100130009D0A00089D0A00089D0A00089D0A000803
:100140009D0A00089D0A00089D0A00089D0A0008F3
:100150009D0A00089D0A00089D0A00089D0A0008E3
:100160009D0A00089D0A00089D0A00089D0A0008D3
:100170009D0A00089D0A00089D0A00080000000072
:100180009D0A00089D0A00089D0A00089D0A0008B3
:100190009D0A00089D0A00089D0A00089D0A0008A3
:0C01A0009D0A00089D0A00089D0A000846
:1001B00010B5054C237833B9044B13B10448AFF3A1
:1001C00000800123237010BD780300200000000090
:1001D000B457000808B5034B1BB103490348AFF3FC
:1001E000008008BD000000007C030020B457000818
:1001F00070B54FF0FF0C4CF4E06C1CEA11541DBFBD
:100200001CEA135594EA0C0F95EA0C0F00F0DEF887
:100210002C4481EA030621EA4C5123EA4C5350EA6C
:10022000013518BF52EA033541F4801143F48013BD
:1002300038D0A0FB02CE4FF00005E1FB02E506F04E
:100240000042E0FB03E54FF00006E1FB03569CF0A3
:10025000000F18BF4EF0010EA4F1FF04B6F5007FA9
:1002600064F5407404D25FEA4E0E6D4146EB06061B
:1002700042EAC62141EA55514FEAC52040EA5E50A4
:100280004FEACE2EB4F1FD0C88BFBCF5E06F1ED84E
:10029000BEF1004F08BF5FEA500E50F1000041EB85
:1002A000045170BD06F0004646EA010140EA020032
:1002B00081EA0301B4EB5C04C2BFD4EB0C0541EA54
:1002C000045170BD41F480114FF0000E013C00F369
:1002D000AB8014F1360FDEBF002001F0004170BD8D
:1002E000C4F10004203C35DA0C341BDC04F11404A6
:1002F000C4F1200500FA05F320FA04F001FA05F232
:1003000040EA020001F0004221F0004110EBD370FE
:1003100021FA04F642EB06015EEA430E08BF20EA2A
:10032000D37070BDC4F10C04C4F1200500FA04F3CD
:1003300020FA05F001FA04F240EA020001F000415F
:1003400010EBD37041F100015EEA430E08BF20EAD2
:10035000D37070BDC4F1200500FA05F24EEA020E1A
:1003600020FA04F301FA05F243EA020321FA04F049
:1003700001F0004121FA04F220EA020000EBD37000
:100380005EEA430E08BF20EAD37070BD94F0000F00
:100390000FD101F00046400041EB010111F4801F34
:1003A00008BF013CF7D041EA060195F0000F18BFE5
:1003B000704703F00046520043EB030313F4801F21
:1003C00008BF013DF7D043EA0603704794EA0C0FDB
:1003D0000CEA135518BF95EA0C0F0CD050EA4106F1
:1003E00018BF52EA4306D1D181EA030101F000416E
:1003F0004FF0000070BD50EA410606BF1046194696
:1004000052EA430619D094EA0C0F02D150EA0136A1
:1004100013D195EA0C0F05D152EA03361CBF1046E2
:1004200019460AD181EA030101F0004141F0FE4181
:1004300041F470014FF0000070BD41F0FE4141F405
:10044000780170BD81F0004102E000BF83F00043FD
:1004500030B54FEA41044FEA430594EA050F08BF5F
:1004600090EA020F1FBF54EA000C55EA020C7FEA23
:10047000645C7FEA655C00F0E2804FEA5454D4EBA0
:100480005555B8BF6D420CDD2C4480EA020281EA6A
:10049000030382EA000083EA010180EA020281EAA2
:1004A0000303362D88BF30BD11F0004F4FEA0131F4
:1004B0004FF4801C4CEA113102D0404261EB410103
:1004C00013F0004F4FEA03334CEA133302D0524289
:1004D00063EB430394EA050F00F0A780A4F1010445
:1004E000D5F1200E0DDB02FA0EFC22FA05F280187F
:1004F00041F1000103FA0EF2801843FA05F3594165
:100500000EE0A5F120050EF1200E012A03FA0EFCE3
:1005100028BF4CF0020C43FA05F3C01851EBE3710D
:1005200001F0004507D54FF0000EDCF1000C7EEB2A
:1005300000006EEB0101B1F5801F1BD3B1F5001F68
:100540000CD349085FEA30004FEA3C0C04F1010487
:100550004FEA445212F5800F80F09A80BCF1004FB0
:1005600008BF5FEA500C50F1000041EB045141EA32
:10057000050130BD5FEA4C0C404141EB0101013CFB
:1005800028BFB1F5801FE9D291F0000F04BF0146EA
:100590000020B1FA81F308BF2033A3F10B03B3F1BC
:1005A00020020CDA0C3208DD02F1140CC2F10C024C
:1005B00001FA0CF021FA02F10CE002F11402D8BFAA
:1005C000C2F1200C01FA02F120FA0CFCDCBF41EA76
:1005D0000C019040E41AA2BF01EB0451294330BD45
:1005E0006FEA04041F3C1CDA0C340EDC04F1140422
:1005F000C4F1200220FA04F001FA02F340EA0300F9
:1006000021FA04F345EA030130BDC4F10C04C4F13E
:10061000200220FA02F001FA04F340EA030029461E
:1006200030BD21FA04F0294630BD94F0000F83F468
:10063000801306BF81F480110134013D4EE77FEA4B
:10064000645C18BF7FEA655C29D094EA050F08BF97
:1006500090EA020F05D054EA000C04BF1946104678
:1006600030BD91EA030F1EBF0021002030BD5FEABC
:10067000545C05D14000494128BF41F0004130BDE4
:1006800014F580043CBF01F5801130BD01F0004538
:1006900045F0FE4141F470014FF0000030BD7FEAAB
:1006A000645C1ABF194610467FEA655C1CBF0B46A6
:1006B000024650EA013406BF52EA033591EA030FBD
:1006C00041F4002130BD00BF90F0000F04BF0021B5
:1006D000704730B54FF4806404F132044FF00005E8
:1006E0004FF0000150E700BF90F0000F04BF002161
:1006F000704730B54FF4806404F1320410F00045C7
:1007000048BF40424FF000013EE700BF42004FEAC1
:10071000E2014FEA31014FEA02701FBF12F07F433E
:1007200093F07F4F81F06051704732F07F4208BFF5
:10073000704793F07F4F04BF41F40021704730B5FC
:100740004FF4607401F0004521F000411CE700BF48
:1007500050EA010208BF704730B54FF000050AE0CB
:1007600050EA010208BF704730B511F0004502D5CC
:10077000404261EB41014FF4806404F132045FEACE
:10078000915C3FF4D8AE4FF003025FEADC0C18BF77
:1007900003325FEADC0C18BF033202EBDC02C2F169
:1007A000200300FA03FC20FA02F001FA03FE40EAFB
:1007B0000E0021FA02F11444BDE600BF4FF0FF3CE9
:1007C00006E000BF4FF0010C02E000BF4FF0010C4B
:1007D0004DF804CD4FEA410C7FEA6C5C4FEA430CC4
:1007E00018BF7FEA6C5C1BD001B050EA410C0CBF13
:1007F00052EA430C91EA030F02BF90EA020F002075
:10080000704710F1000F91EA030F58BF994208BFDB
:1008100090422CBFD8176FEAE37040F00100704798
:100820004FEA410C7FEA6C5C02D150EA013C07D1EF
:100830004FEA430C7FEA6C5CD6D152EA033CD3D03A
:100840005DF8040B704700BF8446104662468C4634
:100850001946634600E000BF01B5FFF7B7FF002867
:1008600048BF10F1000F01BD4DF808EDFFF7F4FF90
:100870000CBF012000205DF808FB00BF4DF808ED1B
:10088000FFF7EAFF34BF012000205DF808FB00BF3E
:100890004DF808EDFFF7E0FF94BF012000205DF860
:1008A00008FB00BF4DF808EDFFF7CEFF94BF012015
:1008B00000205DF808FB00BF4DF808EDFFF7C4FF0E
:1008C00034BF012000205DF808FB00BF4FEA410261
:1008D00012F5001215D211D56FF47873B3EB625292
:1008E00012D94FEAC12343F0004343EA505311F0B9
:1008F000004F23FA02F018BF404270474FF000004B
:10090000704750EA013005D111F0004008BF6FF088
:10091000004070474FF00000704700BF2DE9F04FD6
:10092000EFF3038410B4EFF3148430B41446256855
:1009300060B4EFF30885256000F000B80C46256828
:1009400085F3088860BC256030BC84F3148810BC33
:100950004FF080752C4384F30388BDE8F04F04F01A
:10096000EFBB00BFEFF314846FF004052C4084F359
:1009700014880A6882F3088804F0E6BB2DE9F04F7A
:10098000EFF3038410B4EFF3148430B414462568F5
:1009900060B4EFF308852560FFF7E4BFEFF314843C
:1009A0006FF004052C4084F31488026882F30888F1
:1009B000084700BF0C46256885F3088860BC2560A1
:1009C00030BC84F3148810BC4FF080752C4384F342
:1009D0000388BDE8F04F704717484FF47F01026865
:1009E0000A43026015486FF07F4102680A400260C6
:1009F000704700BF12484FF080510160704700BF40
:100A000072B60F4A4FF00061116001B54FF080736C
:100A10000C4A0D490FB40FB46FF0060E704700BFBB
:100A200007480121C9070160FEE700BF08B0BDE823
:100A3000014062B67047000020ED00E01CED00E0D0
:100A400004ED00E051570008210A0008DFF834D017
:100A5000002103E00C4B5B58435004310B480C4B16
:100A600042189A42F6D30B4A02E0002342F8043BB4
:100A7000094B9A42F9D304F09FF904F06BF903F0A3
:100A8000B1FC704700000320282608080000002061
:100A9000780300207803002078D20020FEE70000D1
:100AA0002DE9F0418CB004460F46354D28680026EC
:100AB000ADF80C60ADF80E404378ADF81030037817
:100AC000ADF8123043F2A613049A039901F0E0FE48
:100AD0002868ADF814600378A4B223449BB2083BA5
:100AE000ADF816304378ADF818304FF00808ADF87F
:100AF0001A803346069A059901F0CAFE28683C23FD
:100B0000ADF81C30037823449BB2053BADF81E3092
:100B10002823ADF820300223ADF8223043F2A6138B
:100B2000089A079901F0B4FEADF82480A31CADF833
:100B30002630144B1A78144B53F822200999286850
:100B400002F0B6F82323ADF82830631EADF82A3042
:100B50004DF29A6300930D4B0D4A0A99286802F0F2
:100B60006CF8ADF82C601234ADF82E400097094BAC
:100B7000094A0B99286802F00CF80CB0BDE8F08126
:100B8000100A0020CA03002064DF000854DF0008B8
:100B9000980300205CDF0008D403002000B583B078
:100BA00000F03CF978B10F4B18684378103BADF872
:100BB00000300023ADF802300B4A009902F078F8BB
:100BC00003B05DF804FB074B18684378103BADF8A1
:100BD00004300023ADF80630044A019902F068F8A9
:100BE000EEE700BF100A00200000002024000020D3
:100BF00038B5FFF7D3FF594B1B7813B1012B62D0E7
:100C000038BD574B1C68A379DBB2012BF8D1022009
:100C100004F092F90028FAD1504B01221A70514B7E
:100C20001A68514B1A60A3681A78D2B24F4BA3FBD3
:100C30000213DB0803EB4303A2EB83034C4A13705C
:100C40000023312B07D84B4A9A5C002A2ED04A4900
:100C5000CA540133F5E7012205E0A168885C4649E2
:100C6000C85401320133218809B2914209DD312B88
:100C700007D8A168895CC9B23A29EED13E49002063
:100C8000C854501CA3681B5CDBB2202B10D000257D
:100C9000421923881BB29A420CDAA368995C374B3D
:100CA0005955A3689B5C2BB10135F1E70122DAE7C6
:100CB000901CECE7022004F075F96E2303FB05F5A8
:100CC0002F4B1D609CE7274B1B68274A12689B1A15
:100CD000B3F5487F19D32A4A106800F548729A4242
:100CE00023D800F5C8629A4225D81C4B00221A70FE
:100CF000022004F021F90028FAD1194B186801F0FC
:100D000088FB022004F04EF97AE71E4A1268107838
:100D100003FB00F31C4AA2FB0323C0EB13204FF696
:100D2000FF7100B2FFF7BCFE6AE74FF6FF710020CB
:100D3000FFF7B6FE64E7134A12681278181AA0F596
:100D4000487000FB02F0104BA3FB0030000A404249
:100D50004FF6FF7100B2FFF7A3FE51E7D00300206A
:100D60000C2308085CD20020CC030020ABAAAAAA5E
:100D7000CA0300202058000898030020D403002054
:100D800094030020100A00201F85EB5108B50220B3
:100D900004F0D2F868B90E4B18688379DBB2012BE6
:100DA00008D00C4B00221A7001F033FB022004F033
:100DB000F9F808BD83681B78DBB24F2BF1D183684B
:100DC0005B78DBB24B2BECD1024B01221A70EBE7C4
:100DD00010230808D404002010B50E4B1C68A3791A
:100DE000DBB2012B0AD10C4B01221A7040F6C4125F
:100DF0004FF4FA71052004F019F910BD022004F037
:100E00009BF80028F2D1204601F003FB022004F0F9
:100E1000C9F8EBE710230808D4040020014B187828
:100E2000704700BFD404002084B008B52DED028BBC
:100E30000DF1100C8CE80F00BDF91030BDF9162033
:100E40009B1ABDF91800BDF91210091A524202FB93
:100E500001F200FB032307EE903AF8EEE77ADDEDAE
:100E6000076A87EEA67ADFED207A67EE277ADFED54
:100E70001F6A87EEA67AB5EEC07AF1EE10FA23D497
:100E80001B4B83ED007ADDED0A7AF8EE677A67EEA8
:100E9000877A9FED187A87EE878A18EE100AFFF797
:100EA00035FC41EC100B03F019FF51EC100B002244
:100EB000114BFFF7E3FCA0B9B0EE480ABDEC028B82
:100EC000BDE8084004B07047F1EE477A0B4BD3ED14
:100ED000006AF4EEE67AF1EE10FAD1DD83ED007AE5
:100EE000CEE79FED078AE7E7C3F51C4100007F438B
:100EF000D804002000007A440000E03F3C000020BD
:100F00000000000010B58CB006A803F0AFFA2E4B1D
:100F10001C68A379DBB2012B49D02C4B00221A703C
:100F2000022004F009F8002843D0294B1B68294A05
:100F300012689B1A02930CAB13E903008DE80300BF
:100F400006AB0FCBFFF770FF204B1B786BB1224B2A
:100F500093ED007AF0EE087AB4EEE77AF1EE10FA4B
:100F600003D51E4B1A681E4B1A601D4BD3ED007A39
:100F700030EE270A83ED000AB5EEC00AF1EE10FA52
:100F80001ED4134B1A68134B1A600CB010BDA26824
:100F9000D15C0CAA1A4402F81C1C0133032BF6DDA9
:100FA000059A0E4B1A60094B01221A70B8E700230C
:100FB000F4E7204601F02DFA022003F0F3FFB4E736
:100FC00000221A60DDE700BF18230808E4040020AF
:100FD0005CD20020E8040020D8040020DC040020BB
:100FE000E004002008B5064B1A68064B1A60064B51
:100FF00000221A60FA221146062004F017F808BDF4
:101000005CD20020E8040020E00400200000000082
:1010100008B5094B1868FFF779FB05A3D3E900234E
:10102000FFF7E6F8FFF752FC08BD00BFAFF3008002
:10103000CDCCCCCCCCCC0C40E00400200B4BD3ED81
:10104000007A9FED0B6A37EE866A67EEA77A094B46
:1010500093ED007A37EE077AC7EE876A76EE867AE6
:10106000FDEEE77A17EE900A704700BFE00400201B
:10107000000000003C00002010B584B002460023B0
:10108000ADF80C30084C2388ADF80E304FF6FF73E6
:101090000093064B03990648006801F07AFD238807
:1010A0000C33238004B010BDEC040020ECAD02082A
:1010B000100A0020F0B58FB006466B4B1F6894E015
:1010C0008623ADF830300023ADF83230674A0C99F2
:1010D000674B186801F0ECFD6648FFF7CDFF92E022
:1010E0006548FFF7C9FF92E002ADDFF8BCC1BCE87C
:1010F0000F000FC59CE8030045F8040B298003F09E
:1011000013FC01280BD003F015FC01280ED003F0CE
:1011100017FC012811D002A8FFF7AEFF7BE04423A3
:101120008DF815306E238DF81630ECE744238DF8DA
:1011300018306E238DF81930E9E744238DF81B3001
:101140006E238DF81C30E6E74C4B02AD0FCB07C584
:1011500025F8023B1B0C2B70454B1D687823ADF81E
:101160003430474B1B88ADF8363003F061FC024643
:101170004FF6FF730193434B009302230D992846CA
:1011800001F0BEFE02A8FFF777FF47E03E48FFF7F9
:1011900073FF374D3D4B08AA93E8030082E8030034
:1011A0004FF6FF7306CA286801F0A3FA0723ADF8CB
:1011B00028304323ADF82A302B4B1A68D21B9223D8
:1011C00003FB02F3B3FBF6F3ADF82C300623ADF8C6
:1011D0002E304FF620230B9A0A99286801F058FB0D
:1011E000286801F0EFFEB4423CD81F4B1C68E41B9A
:1011F0000021234B19801E4B186802F0B5FAB4F594
:10120000C87F3FF65DAFB4F5487F3FF669AFB4F5F0
:10121000966F3FF669AFB4F5C86F95D8B4F5FA6F1D
:10122000B7D91B4B1B689B79DBB2012BAED0194B96
:10123000A3FB0423C3F34113032BAAD8DFE803F075
:1012400002060A0E1448FFF717FFA2E71348FFF73C
:1012500013FF9EE71248FFF70FFF9AE71148FFF7C9
:101260000BFF96E70FB0F0BD5CD2002040000020DD
:10127000100A002070DF000880DF0008F8DF000897
:10128000EC040020ECAD020894DF0008CC57000805
:10129000102308081F85EB51A8DF0008BCDF0008F9
:1012A000D0DF0008E4DF000808E000082DE9F04F77
:1012B000A7B00990B94BD3F800B003F0B1F80EA86D
:1012C00003F0D4F8BDF938300393BDF93A300493F4
:1012D000BDF93C3005930AA803F0DEF8BDF92830CB
:1012E0000693BDF92A300793BDF92C3008930CA85A
:1012F00003F0E6F80D9E0C9FA84B1C68A4EB0B04B2
:101300000021A74B1980A74B186802F02DFAA648B8
:10131000FFF7B2FEB4F5C87F3CD8B4F5487F00F2C1
:101320009080B4F5966F00F2B8809E4D14AA9F4B42
:1013300093E8030082E803004FF6FF7306CA2868AB
:1013400001F0D7F90723ADF858304723ADF85A30EC
:10135000924B1A68A2EB0B02922303FB02F3099E45
:10136000B3FBF6F3ADF85C300223ADF85E304FF618
:101370001F03179A1699286801F08AFA286801F065
:1013800021FEB4429BD9BDF94C30002B97D127B038
:10139000BDE8F08FDFF80C824B23ADF86030DFF84A
:1013A00000A2BAF80030ADF86230814A82FB073201
:1013B000FD17C5EBA2054FF4FC69CDF804907D4BF9
:1013C000009302232A461899D8F8000001F098FDEE
:1013D0005A23ADF86430BAF80030ADF86630CDF875
:1013E0000090744B744A1999D8F8000001F0D1FBB1
:1013F0006123ADF86830BAF80030ADF86A3005EB1B
:101400008505CDF804906B4B00930123A7EB4502B3
:101410001A99D8F8000001F073FD6923ADF86C301B
:10142000BAF80030ADF86E30CDF80090614B634AE9
:101430001B99D8F8000001F0ACFB6148FFF71CFED7
:101440006BE7584D4B23ADF87030DFF85481B8F896
:101450000030ADF872305B4981FB0631F21740F283
:10146000FF560196534F00970423C2EB61121C995B
:10147000286801F045FD7323ADF87430B8F80030EA
:10148000ADF8763000963B464F4A1D99286801F02A
:1014900080FB4E48FFF7F0FD43E7424D5523ADF882
:1014A00078303F4E3388ADF87A304FF6FF7ACDF87A
:1014B00000A0474B474A1E99286801F06AFB4FF08D
:1014C0004B09ADF87C903388ADF87E304FF620287C
:1014D000CDF80480374F00970823039A1F99286896
:1014E00001F00EFDADF8809033880A33ADF88230FC
:1014F000CDF8048000970823049A2099286801F009
:10150000FFFCADF8849033881433ADF88630CDF805
:10151000048000970823059A2199286801F0F0FCBF
:101520000F23ADF888303388ADF88A30CDF800A0AD
:10153000274B294A2299286801F02BFB4FF0050917
:10154000ADF88C903388ADF88E30CDF804800097DC
:101550000823069A2399286801F0D2FCADF89090F0
:1015600033880A33ADF89230CDF804800097082311
:10157000079A2499286801F0C3FCADF89490338849
:101580001433ADF89630CDF8048000970823089AFC
:101590002599286801F0B4FCC7E600BF5CD20020A2
:1015A000EC040020100A002020E00008D4570008B6
:1015B00067666666ECAD0208CCDF000838E000081C
:1015C0003CE000081F85EB5148E000084CE00008B3
:1015D000F4AD020858E000085CE000082DE9F04393
:1015E0002DED028B89B006464C4B1F684B4B1C6897
:1015F000E41B4B4D2868437804FB03F2B2FBF6F280
:101600009B1A07EE903AB8EE678A002102F0ACF818
:10161000F1EE008A78EE287AFDEEE77A17EE903A3E
:10162000ADF818300523ADF81A30DFF8048140F228
:10163000FF59CDF8009043463A4A0699286801F0D0
:10164000FCFA38EEC88ABDEEC88A18EE103AADF83A
:101650001C302823ADF81E30CDF800904346324AA6
:101660000799286801F0E9FA286801F0ABFCB44258
:10167000BCD364221346013A23B14EF65D23013BED
:10168000FDD1F7E7264C0021206802F06DF8274DC8
:10169000274E4FF6FF7700973346224A2969206884
:1016A00001F0CBFA009733461F4A6969206801F0C0
:1016B000C4FA206801F086FCC8221346013A23B11F
:1016C0004EF65D23013BFDD1F7E7154C0021206864
:1016D00002F04AF8154D164E40F2FF570097334678
:1016E000104A2969206801F0A8FA009733460E4A8B
:1016F0006969206801F0A1FA206801F063FC4FF4E9
:1017000096721346013A23B14EF65D23013BFDD19B
:10171000F7E709B0BDEC028BBDE8F0835CD2002096
:10172000100A002060E0000868E00008CC570008BC
:10173000E4AD020810B582B0FFF74EFB174C002154
:10174000206802F011F80023ADF80430ADF806303F
:10175000134A0199206801F0ABFA206801F032FCCD
:101760004FF47A721346013A23B14EF65D23013BE2
:10177000FDD1F7E741F28830FFF79CFC40F6C4103A
:10178000FFF794FD4FF44870FFF728FFFFF72AFC9E
:10179000092003F085FB02B010BD00BF100A002035
:1017A0004C000020F0B58DB000214E4B186801F0C0
:1017B000DBFF4D4B1868ADF81000030C8DF81230AC
:1017C0004A4B1B68ADF80C301A0C8DF80E20484AB5
:1017D000B2F900103231C1EB0121464C84FB0124E7
:1017E000CA17C2EB6412D2B2DBB2C0B2C01A00FB9D
:1017F00002F000286FDB03EB2023DBB29DF80D1015
:101800009DF81100401A00FB02F0002865DB01EB97
:101810002021C9B29DF80E409DF81200001B00FB6C
:1018200002F2002A5BDB04EB22221B0203F4784362
:101830001BB2C90001F4FC610B43C2F3C4021343A1
:10184000284C2A4D9BB22C4A6968206801F0C8FADE
:101850002A4F4FF6FF7600963B46294AA968206832
:1018600001F097F900963B46264AE968206801F0A6
:1018700090F908AA6969286982E80300334606CA14
:10188000206800F036FF0723ADF828303E23ADF87E
:101890002A30174BB3F9003003F13202922303FBD5
:1018A00002F3144A82FB0312DB17C3EB6213ADF899
:1018B0002C300B23ADF82E304FF6A0630CAA12E9A2
:1018C0000600206800F0E4FFFFF792F9206801F0BD
:1018D00079FB0DB0F0BDFF308DE7FF3097E7FF32A9
:1018E000A1E700BF100A002014AE0208E457000868
:1018F000EE0400201F85EB51AC010020B0F502087A
:10190000FCAD020808AE020870B50024264624E0AB
:1019100046B3092003F0C4FA24E003F011F8D0B173
:10192000224B1D68224B1A88224B1A80042426E081
:1019300003F000F818BB03F003F800BB00240AE032
:101940001C4A128813441BB2194A1380322B02DD41
:10195000134632221A80FFF725FF02F0E5FF012827
:10196000D6D00126002CE3D102F0E4FF0028D4D029
:101970000E4B1D680E4B1A880E4B1A8003240B4B1E
:101980001B685B1B0C4AA2FB03231B09032CD7D04B
:10199000084A1288D31A1BB2054A138013F1320F7A
:1019A000D9DA13464FF6CE721A80D4E75CD2002003
:1019B000EE040020F00400201F85EB512DE9F043D8
:1019C00089B002A802F07CFDDDF80890244E306852
:1019D0000578103D0823ADF81030ADF81250214BBA
:1019E00083FB09234FEAE974C4EBA3044DF29A6820
:1019F000CDF804801C4F009702232246049901F081
:101A00007FFA1723ADF81430ADF81650CDF80080EA
:101A10003B46164A0599306801F0BBF81E23ADF825
:101A20001830ADF81A5004EB84046200CDF804803D
:101A300000970123A9EB02020699306801F060FAD1
:101A40002623ADF81C30ADF81E50CDF800803B4683
:101A5000074A0799306801F09CF809B0BDE8F083A7
:101A6000100A002067666666B03B0408CCDF0008F9
:101A700038E000082DE9F04192B0454C0025ADF862
:101A80000850ADF80A50434B1A78013A4FF620231C
:101A9000414951F822200299206801F0A1F92068FB
:101AA0003D26ADF80C60ADF80E50ADF8106003782F
:101AB000ADF812304FF47843049A039900F058FFC0
:101AC00020684FF03E08ADF81480ADF81650ADF820
:101AD00018800378ADF81A304FF47843069A0599C8
:101AE00000F046FF20683F27ADF81C70ADF81E508F
:101AF000ADF820700378ADF822304FF47843089A9F
:101B0000079900F035FFADF82450ADF82660234E5C
:101B10004FF4784332680999206800F029FFADF846
:101B20002C50ADF82E804FF4784372680B992068E2
:101B300000F01EFFADF83450ADF836704FF4784326
:101B4000B2680D99206800F013FF4FF4FC6701970D
:101B5000134D00950423134AB2F90020F168206860
:101B600001F0CEF900972B460F4A3169206801F049
:101B700010F84FF6FF7300930C4B0D4A7169206803
:101B800001F007F8FFF71AFF12B0BDE8F08100BFBF
:101B9000100A0020F4050020C83B0408FC57000888
:101BA000B83B0408F2040020B8F50208C03B040862
:101BB000F4040020F0B585B00021354B186801F021
:101BC000D3FD344B1C68A379DBB2012B2AD0324BF6
:101BD0001B78002B58D12E4C0027ADF808700A2333
:101BE000ADF80A302D4D4FF6FF7600962B462C4A65
:101BF0000299206800F0CDFFADF80C702823ADF8F5
:101C00000E3000962B46274A0399206800F0C1FF4A
:101C1000FFF7D4FEFEF7ECFF1D4B186801F0D2F978
:101C200005B0F0BDA3681B78DBB21F4AA2FB03120C
:101C3000520802EBC2029B1ADBB2174A1370BBB107
:101C4000A3685B78A268927843EA0223174A13805C
:101C5000002200E0013223881BB2033B934207DDE0
:101C6000A168D31CCB5CDBB211498B54002BF1D1A2
:101C7000022003F061F90028FAD1204600F0C9FBE8
:101C8000022003F08FF9A2E7FFF7F4FEC2E700BFDE
:101C9000100A002014230808F4050020A83B0408BB
:101CA000BCF50208CCF50208398EE338F2040020B6
:101CB000F404002010B5002402E00124FFF77AFFAD
:101CC00002F032FE0128F8D1002CF7D00B2003F0EF
:101CD000E7F8F3E72DE9F0478AB003900F4602F0EA
:101CE000B3FFC6B202F098FFC0B24D4DA5FB06345B
:101CF000E40804EB8403A6EB4306F6B2E4B2A5FBCA
:101D00000423DB0803EB8303A4EB4304E4B2A5FB49
:101D10000023DB0803EB8308A0EB48005FFA80F8A0
:101D2000DBB2A5FB0325ED0805EB8505A3EB450319
:101D3000DAB213F0FF0F50D1BDF80C300A3BADF80A
:101D40000C30BDF80C300A339DB2ADF81430BDF93B
:101D50000E90ADF816900197324B00930123424646
:101D600005993148006801F0CBF8304B1A68304BC8
:101D7000A3FB02139B094FF47A7101FB1323B3F504
:101D8000FA7F3CD80A35ADF80C50DFF89C80BDF8DE
:101D90000C300A339DB2ADF81830ADF81A900197A7
:101DA000DFF880A0CDF800A0012322460699D8F8DC
:101DB000000001F0A5F80A35ADF81C50ADF81E90F2
:101DC0000197CDF800A0012332460799D8F800000A
:101DD00001F096F80AB0BDE8F087BDF90C30ADF817
:101DE0002030BDF90E30ADF8223001970D4B009335
:101DF000012308990C48006801F082F8A1E70A3530
:101E00002DB2ADF80C50ADF82450ADF826900097E7
:101E1000044B084A09990448006800F0BAFEB4E788
:101E2000CDCCCCCCE8220808100A00205CD20020DF
:101E3000D34D621044E0000800B583B03749B1F9D2
:101E40000020B1F90630D21AB1F90800B1F9021038
:101E5000091A5B4203FB01F300FB0232304B83FBA8
:101E600002139918D317C3EBE113FE2A2EDDFF2BC3
:101E7000A8BFFF23DBB2C3EB831291000A460029FF
:101E80001EDBC2F30722A3EB4313D9000B46002944
:101E900019DB1B12A3F10801D30003F4FC63C1F3A7
:101EA000C40213430022ADF80420ADF806201D4AF9
:101EB00001991D48006800F093FF03B05DF804FB32
:101EC00001F1FF02DDE701F1FF03E2E712F57F4FC9
:101ED00002DD5B42DBB200E0FF231A46C3EB431393
:101EE000D9000B46002912DBC3F30723A2EB4212F1
:101EF000D1000A4600290DDB1212083A1B0203F436
:101F000078431BB2C2F3C40213439BB2CAE701F188
:101F1000FF03E9E701F1FF02EEE700BFF80500204B
:101F200081808080DC010020100A002030B589B05B
:101F30000390154600200DE008AB1C18274BA3FBAF
:101F40000123DB0803EB8302A1EB420104F8101C20
:101F500099B201300228EFD99DF812405CBB9DF880
:101F6000112002B98CB1BDF80C301733ADF81C301C
:101F7000BDF90E30ADF81E300195194B00930123C9
:101F800007991848006800F0BBFFBDF80C303533E6
:101F9000ADF81430BDF90E30ADF816300195104B88
:101FA000009301239DF8102005990E48006800F069
:101FB000A7FF09B030BDBDF90C30ADF81830BDF940
:101FC0000E30ADF81A300195054B009301232246DF
:101FD00006990448006800F093FFC0E7CDCCCCCC54
:101FE000F0220808100A002070B586B0039014464D
:101FF0000D4D01920D4E009604230A4601462868B5
:1020000000F07EFFBDF80C303833ADF81430BDF968
:102010000E30ADF8163000943346054A059928680D
:1020200000F0B7FD06B070BD100A0020E8220808D5
:10203000B8F5020830B585B000211F4B186801F0D3
:1020400093FBFFF7F9FE1D4B1B680093FEF7E0FFC3
:1020500084B2FEF7DDFF31282ADC4FF6FF722146FD
:102060000098FFF763FF154D6B680193FEF7E6FFDD
:1020700001464FF400420198FFF7B6FF0E4C0023D3
:10208000ADF808300323ADF80A304FF6FF730C4A61
:102090000299206800F0A4FE4FF6FF71A868FFF7D0
:1020A00019FEFEF7A5FD206800F08CFF05B030BDDD
:1020B0004FF47842D3E700BF100A002014580008FC
:1020C000D001002070B586B000260DE001266846DC
:1020D00002F0CCF9094D6C460FCC0FC594E8030013
:1020E00085E80300FFF7A6FF02F01EFC0128EDD1F2
:1020F000002EECD00A2002F0D3FEE8E7F80500201D
:1021000000B583B08DF804008DF80510022201A9F6
:10211000A62001F00DF803B05DF804FB08B500211E
:102120003120FFF7EDFF0A212C20FFF7E9FF0821FE
:102130002D20FFF7E5FF08BD70B582B006460D46BD
:1021400014463221A62000F0C5FF06226946A620CB
:1021500001F028F89DF800309DF8012043EA0223A1
:1021600033809DF802309DF8032043EA02232B8040
:102170009DF804309DF8052043EA0223238002B035
:1021800070BD0000002300E00133072B0ADCC3EB25
:10219000C3029100044A0A441279002AF4D1024889
:1021A00008447047002070471406002010B4184BF4
:1021B0004FF400049C61174B4024C3F88440BFF3E4
:1021C0004F8FBFF36F8F144BB3FBF0F0134B98603E
:1021D00000205861022A08D00022104B1A6151B128
:1021E000022905D043F22C4207E04FF40052F4E7F5
:1021F00043F22C6201E042F22C02084BDA60054BFC
:102200004022C3F884215A605DF8044B704700BF38
:10221000000C024000E100E040A5AE020044004096
:1022200038B50023334C2360334C2360334C236B8D
:1022300043F008032363324B1D6825F440451D60BD
:102240001D6845F480451D605D6825F080055D6072
:102250005D685D609D6825F440459D609D689D605A
:10226000DD6825F44045DD60DD68DD604FF4000584
:102270009D611D6825F440651D601D6845F400657D
:102280001D605D6825F020055D605D685D609D688E
:1022900025F440659D609D6845F440659D60DD685E
:1022A00025F44065DD60DD68DD601D6A25F470059C
:1022B0001D621D6A45F4E0051D621D6825F4405548
:1022C0001D601D6845F400551D60DD6825F440550E
:1022D000DD60DD68DD601D6A25F070651D621D6AC8
:1022E00045F0E0651D62236C43F400332364FFF77F
:1022F0005DFF38BD10060020F406002000380240C3
:10230000000C024070B506460D46FFF73BFF044641
:10231000D0B1102DA8BF10252A463146053002F055
:102320003DFD25800022628001232371A26183F399
:1023300010880A4B1B684BB1094B1B689C6100233A
:1023400083F31088064B1C60204670BD034B1C6055
:10235000044AD36843F08003D360F0E710060020FE
:10236000F40600200044004008B5234B4022C3F887
:102370008421224B1B6813F0800F08D0204B1B6870
:102380002BB11A79D2B2012A07D0022A0ED01B4BE8
:102390001B6813F0200F28D108BD02221A715A7948
:1023A000D2B216494A6001225A80F0E7598809B230
:1023B0001A8812B291420BDA5A8803FA82F25279E1
:1023C000D2B20E494A605A88013212B25A80DEE710
:1023D00000221A719B690A4A1360002BD7D1074A61
:1023E000D36823F08003D360D1E7044B5868C0B2B0
:1023F00000F016F8D0E700BF00E100E00044004024
:102400001006002008B500F8041F0221FFF77AFF2C
:1024100008BD08B5002282714121FFF7F3FF08BD16
:1024200010B582B0294AB2F90030591E1180002B34
:102430000FDC274B1B6873B19C685A8811B20132BC
:1024400012B25A806054598809B21A8812B2914265
:1024500032DA02B010BDFF28FBD0132B0AD81D4A78
:1024600052F823104A79D2B2824201D00133F4E704
:10247000174B1960164B1B687BB19A7902F0FF016C
:10248000AAB10129E5D11A88104B1A800020104BFF
:1024900018604321FFF7B6FFDBE744238DF80430D3
:1024A0008DF80500022101A8FFF72CFFD1E70022DB
:1024B0005A8002229A71CCE701229A714221184671
:1024C000FFF7A0FF024B00221A60C2E708090020B4
:1024D00004090020F822080838B5AA21EE2000F0EF
:1024E000F9FD16220E49EE2000F05CFE002010E0FF
:1024F0004200D2B2541CE4B209490B5D8D5C6B40C2
:102500008B540D5D6B400B558C5C63408B540130DC
:10251000C0B20A28ECD9024B4FF4F5621A8038BDDC
:102520000C09002000B583B042F6F463ADF8043026
:10253000022201A9EE2000F0FBFD0F221346013A12
:1025400023B14EF65D23013BFDD1F7E7F621EE20E6
:1025500000F0C0FD022201A9EE2000F023FE9DF84C
:1025600004009DF8053043EA002003B05DF804FB49
:1025700010B582B00446F4238DF80430830143F093
:1025800034038DF80530022201A9EE2000F0D0FDC1
:1025900004EB8402920006321346013A23B14EF650
:1025A0005D23013BFDD1F7E7F621EE2000F092FD1F
:1025B000032201A9EE2000F0F5FD9DF804209DF80E
:1025C00005301B0243EA02439DF806201343C4F181
:1025D000080043FA00F002B010BD0000F0B4DFF8CC
:1025E000E4C0BCF80A60801BBCF8086006FB00F081
:1025F000BCF91260F602BCF9144004EBE03496FB1F
:10260000F4F606EBE03606F108052D11A6F57A661C
:10261000BCF90E4006FB06F0071307FB04F4E412B6
:10262000BCF9020006FB00F0002842DB04EBE024CA
:102630002448B0F9000004EB8004901C84403BD493
:10264000DFF880C0BCF9040006FB00F6BCF90C0002
:1026500000FB07F0001400EB663002308010BCF87D
:10266000066000F5004000FB06F0C00BA1EBA401E2
:102670004CF2503444FA02F202FB01F4002C1DDB50
:102680006400B4FBF0F0021202FB02F240F6DE310D
:1026900001FB02F10C4A02FB00F2121402EB214290
:1026A00002F6CF6200EB2210049A10601D60F0BCAD
:1026B000704700F2FF70B9E70334C1E7B4FBF0F0F4
:1026C0004000E0E70C09002043E3FFFF70B582B053
:1026D00005460E46FFF726FF04460020FFF748FF99
:1026E000014600962B4600222046FFF777FF02B0F6
:1026F00070BD2DE9F04385B06C4684E80600BDF955
:10270000001042781546914280F2BF80BDF9026008
:1027100090F80080464580F2B880BDF9047011EB56
:10272000070E00F1B280BDF906C016EB0C0900F1EE
:10273000AC8000292EDB0424724501DB44F0080440
:10274000002E01DB44F00104C84501DB44F0020423
:10275000002921DB002E27DBBDF900C06746BDF94B
:10276000041061448A4204DA1FFA8CF1521AADF85F
:102770000420BDF902E07646BDF90620724490457A
:1027800005DA1FFA8EF2A8EB0208ADF80680009A6F
:10279000039214E00024CFE717FA81F1ADF804109A
:1027A0000021ADF80010D5E71CFA86F6ADF80660FA
:1027B0000021ADF80210CFE70132ADF80C20BDF9D1
:1027C0000C20BDF9048007EB08018A422DDA14F0D1
:1027D000010F0ED05FFA8EF190F8058005FB01F134
:1027E00051FA82F14FF4485909FB081100EB4101FD
:1027F000CB8014F0020FDFD0BDF906100029DBDD1D
:102800007144C9B20139C9B290F8058005FB01F1E4
:1028100051FA82F14FF4485909FB081100EB4101CC
:10282000CB80C9E70132ADF80E20BDF90E20BDF90D
:10283000061031448A4228DA14F0040F0CD0D1B2C9
:10284000477905FB01F151FA8CF14FF4485E0EFB1C
:10285000071100EB4101CB8014F0080FE2D0B8F172
:10286000000FDFDD0CEB0801C9B24F1ED1B290F8AA
:1028700005E005FB01F151FA87F14FF4485707FBDA
:102880000E1100EB4101CB80CCE705B0BDE8F08331
:102890002DE9F04184B06C4684E80600BDF90010D3
:1028A00042781746914260DCBDF902400578AC429F
:1028B0005BDCBDF90460F14257D4BDF906C014EBEE
:1028C0000C0F52D400291DDB002C23DBBDF90010B6
:1028D0008E46BDF904400C44A24203DA89B2521A72
:1028E000ADF80420BDF902C06646BDF90620624479
:1028F000954204DA1FFA8CF2AD1AADF80650009A30
:1029000003922BE016FA81F1ADF804100021ADF826
:102910000010D9E71CFA84F4ADF806400021ADF8A8
:102920000210D3E7D4B2417907FB04F454FA85F4DA
:102930004FF4485808FB014100EB4101CB800132C4
:10294000ADF80E20BDF90E20BDF9061031448A42C3
:10295000E8DBADF80EC00135ADF80C50BDF90C50F8
:10296000BDF9042072449542ECDB04B0BDE8F0816F
:102970002DE9F04F85B0019316B20BB2F51A002D78
:10298000B8BF6D42171409140C46C1EB224282EA0B
:10299000E27CACEBE27C9E4211DB012200928F4292
:1029A00011DB4FF0010B654510DB05EBD5725210C2
:1029B000DDF800E000210091884600212EE04FF074
:1029C000FF320092EBE74FF0FF3BECE70CEBDC72E1
:1029D0005210294665468C46D8464FF0000BDE461D
:1029E000EBE7002686B1467990F801A0E7B25FFADE
:1029F00083F90AFB07974FF4485A0AFB067A00EB63
:102A00004A0A019EAAF806606244954203DC521B02
:102A1000009E33445C447344444401318D4214DBD2
:102A20001EB227B2002EDCDB002F08DB90F80190ED
:102A30004E4506DA0678B74205DB0026D2E70026C7
:102A4000D0E70026CEE70126CCE705B0BDE8F08F41
:102A50002DE9F04F83B002AC04E90600BDF8306008
:102A600000258DE00022002A5ED005FB041413F837
:102A70000480B8F1000F57D08E442F44FFB290F875
:102A800005C0427802FB07F757FA8EF74FF4485219
:102A900002FB0C7200EB4202B2F80690320A02F01E
:102AA000F8024FEAD60E0EF0FC0EF400E4B24FEA44
:102AB000192B0BF0F80B4FEAD90A0AF0FC0A4FEA7F
:102AC000C9095FFA89F9A2EB0B0202FB08F2002A9E
:102AD0004EDB0BEB2222D2B2AEEB0A0E0EFB08FE4F
:102AE000BEF1000F46DB0AEB2E2E5FFA8EFEA4EB42
:102AF000090404FB08F4002C3FDB09EB2424120238
:102B000002F4784212B24FEACE0E0EF4FC6E42EAA4
:102B10000E02C4F3C40422434FF4485404FB0C7C5B
:102B200000EB4C0CACF806200131BDF904408C429E
:102B300025DDBDF900E011FA8EF212B2BDF9027086
:102B400015FA87FC0FFA8CFC002A8BDBBCF1000F16
:102B500008DB90F80180424506DA0278944505DBEF
:102B6000002280E700227EE700227CE701227AE74C
:102B7000FF32AEE70EF1FF0EB5E7FF34BDE70135DA
:102B8000BDF90620AA4201DD0021CEE703B0BDE871
:102B9000F08F2DE9F04F87B00646039190461F460F
:102BA000BDF840900FFA81FA002522E03B68B3F8A7
:102BB0000432BDF80C201344ADF80C30013518E098
:102BC000039B0493ADF814B0B2F90630ADF816309B
:102BD00051F83430CDF8009006AA12E906003046CC
:102BE000FFF736FFBDF80C3013FA8BFBADF80CB0D5
:102BF000013518F80540ECB1202CD7D0213CBDF9A7
:102C00000C30396801EBC402B2F904B05B4470784F
:102C10008342D5DBBB88BDF80E0003441BB2ADF880
:102C20000E30B2F9060003443078834202DAADF880
:102C30000CA0C5E707B0BDE8F08F2DE9F04387B0E1
:102C40008046039116461F46BDF8389000251EE0C9
:102C50002139039B04933B6803EBC102B2F90440A2
:102C6000ADF81440B2F90620ADF8162053F8313013
:102C7000CDF8009006AA12E906004046FFF7E8FEEC
:102C8000BDF80C3013FA84F4ADF80C400135715DD9
:102C900059B12029DCD13B68B3F80432BDF80C20CF
:102CA0001344ADF80C300135F1E707B0BDE8F0830F
:102CB0002DE9F04F85B0039113680293D2F8049088
:102CC0000B1401931E460F21002776E00024002CF0
:102CD0004AD012B1D45D0C4246D0D5570D400F29D1
:102CE00062D0A3EB0C08019C341B0EFB048E029CEB
:102CF00034F81E40F02D27D090F805E090F801B090
:102D00005FFA86F85FFA83FA0BFB08A84FF4485B7A
:102D10000BFB0E8B00EB4B0BBBF806E005F1040838
:102D20004EEA0E4E2D4D0EEA050E44EA04442C40A8
:102D3000A4EB0E04C8F3C70804FB08F40EEB54140C
:102D40002C4044EA1444A4B2457990F801A05FFAFB
:102D500086FE5FFA83F80AFB0E8E4FF4485808FB94
:102D600005E500EB4505EC800F2920D001370F2148
:102D70000133B9F908E00EEB0C049C4219DD1CB2DA
:102D800035B2002CA2DB002D08DB90F80180444511
:102D900006DA0478A54205DB002498E7002496E7CC
:102DA000002494E7012492E72D01EDB299E7F02188
:102DB000DEE74B4691461A460136B2F90A30019CCD
:102DC0002344B34206DDBDF90CC0634614464A46AF
:102DD000A146CEE705B0BDE8F08F00BF1FF8E007C1
:102DE0002DE9F04F83B001919A4653680914009180
:102DF0008E460F25002673E00024002C45D013B129
:102E00009C5D2C4241D013F906C00CEA050C0F2D35
:102E10005BD0BCF1F00F5DD0477990F801B05FFA5C
:102E20008EF45FFA81F90BFB04944FF4485909FBC7
:102E3000074400EB4404E7880CF1040C47EA074719
:102E4000DFF8B89007EA09074AEA0A4404EA0904E5
:102E5000E41BCCF3C70C04FB0CF407EB541404EA9A
:102E6000090444EA1444A4B290F805C090F801B0F3
:102E70005FFA8EF75FFA81F90BFB07974FF4485919
:102E800009FB0C7700EB4707FC800F2D24D001369F
:102E90000F250131B2F9084044448C421EDD0CB2CA
:102EA0000FFA8EF7002CA7DB002F08DB90F801C08B
:102EB000644506DA0478A74205DB00249DE7002478
:102EC0009BE7002499E7012497E74FEA0C1C5FFA7F
:102ED0008CFC9EE75446C7E7F025DAE70EF1010EB9
:102EE000B2F90A10009C2144714503DDBDF904804C
:102EF0004146CFE703B0BDE8F08F00BF1FF8E00701
:102F000070B58AB00391591E092900D90A23002AF5
:102F100016DB00260024092C16DC294D85FB021542
:102F2000D117C1EBA5010D4601EB8101A2EB4101D7
:102F30000AAA224402F80C1C2A4625B10134EAE709
:102F400052420126E6E70134191B002305E00AAAD4
:102F50001A44202502F8185C01334A1E9A42F6DC16
:102F60008B4219DA36B10AAA1A442D2102F8181C2C
:102F7000013311E00AAA1A44202102F8181C013377
:102F80000AE0013C0AAA224412F80C2C30320AA9A9
:102F9000194401F8182C0133092B01DC002CF0DC5A
:102FA0000AAA1344002203F8182CBDF83C30009301
:102FB0000E9B04AA0399FFF7ECFD0AB070BD00BF99
:102FC0006766666610B50446084B1A68084B1B68AE
:102FD000D31AB3F5FA6F03D8204600F089FB10BD71
:102FE000034B1A60017900F09FF9F5E75CD20020ED
:102FF00024090020334A136B43F002031363324B5E
:10300000196821F440111960196841F40011196020
:10301000596A21F470615962596A41F480615962B8
:10302000596821F480615960596841F480615960A0
:10303000996821F440119960996841F440119960B0
:10304000D96821F44011D960D96841F48011D96060
:10305000196821F440011960196841F400011960F0
:10306000596A21F470415962596A41F480415962A8
:10307000596821F400615960596841F40061596050
:10308000996821F440019960996841F44001996080
:10309000D96821F44001D960D96841F48001D96030
:1030A000136C43F480031364084B01221A602D2231
:1030B0005A6045F2E472B2FBF0F2DA61044B062288
:1030C000DA707047003802400004024000580040A7
:1030D00028090020154B9B6913F0020FFAD1134AFF
:1030E000136843F480731360104B5B6913F0010F96
:1030F000FAD000F0FE000D4B18610C4B5B6913F029
:10310000020FFAD0094B9B69084B5B6913F0800FE3
:10311000FAD0064B1961054B5B6913F0800FFAD0AA
:10312000024A136843F4007313607047005800406C
:1031300010B41B4B9B6913F0020FFAD1184C236893
:1031400043F480732360164B5B6913F0010FFAD0D0
:1031500000F0FE00124B1861114B5B6913F0020F77
:10316000FAD00F4B9B6909E00D4B5B6913F0800FA0
:10317000FAD011F8012B0A4B1A610246531E18B2FD
:10318000002AF1DC064B5B6913F0800FFAD0044A89
:10319000136843F4007313605DF8044B704700BF7D
:1031A0000058004010B43A4B9B6913F0020FFAD15B
:1031B000022A41DD364B1C6844F480641C601C68A4
:1031C00024F400641C601C6844F480741C60304B60
:1031D0005B6913F0010FFAD040F001002C4C206124
:1031E0002B4B5B6913F0020FFAD0294B9B6909E066
:1031F000274B5B6913F0040FFAD0254B1B6901F8CC
:10320000013B0246531E18B2022AF1DC204A136821
:1032100023F4806313601E4B5B6913F0040FFAD034
:103220001B4B1A6842F400721A601A690A701B6913
:103230004B705DF8044B7047154B1A6822F480629E
:103240001A601A6842F400621A601A6842F48072C6
:103250001A600F4B5B6913F0010FFAD040F00100C8
:103260000B4A10610A4B5B6913F0020FFAD0084B4E
:103270009B69074B5B6913F0040FFAD0044B1A6883
:1032800042F400721A601A690A701B694B70D0E729
:103290000058004000B583B08DF804008DF805108B
:1032A000022201A9D220FFF743FF03B05DF804FB1F
:1032B00008B50A221346013A23B14EF65D23013BBD
:1032C000FDD1F7E70F212020FFF7E4FF1021232095
:1032D000FFF7E0FF00212420FFF7DCFF08BD70B5F9
:1032E00082B006460D461446A821D220FFF7F2FE12
:1032F00006226946D220FFF755FF9DF800309DF861
:10330000012043EA022333809DF802309DF8032018
:1033100043EA02232B809DF804309DF8052043EA00
:103320000223238002B070BD6D4B1B6813F4006F45
:1033300011D06B4B9B6813F0800FFAD1684B1A6861
:1033400022F040021A601A6822F400621A601A68B9
:1033500042F040021A60032900F2A680DFE811F073
:103360000400C2000400C200A02343705023037075
:103370005B4B9B6813F0020FFAD0594B9B6813F01C
:10338000800FFAD1564B2A22DA6003F550434FF4EE
:1033900000229A61524B9B6813F0020FFAD0504BF7
:1033A0009B6813F0800FFAD14D4B0022DA6003F5D1
:1033B000504308229A614A4B9B6813F0020FFAD0DF
:1033C000474B9B6813F0800FFAD1454B0122DA601E
:1033D000434B9B6813F0020FFAD0414B9B6813F0EC
:1033E000800FFAD13E4B0022DA6003F550430822E9
:1033F0009A613B4B9B6813F0020FFAD0384B9B68E5
:1034000013F0800FFAD1364BA022DA60344B9B6860
:1034100013F0020FFAD0324B9B6813F0800FFAD1F1
:103420002F4B2B22DA6003F550434FF400229A61B0
:103430002B4B9B6813F0020FFAD0294B9B6813F0BB
:10344000800FFAD1264B0022DA6003F550430822A0
:103450009A61234B9B6813F0020FFAD0204B9B68B4
:1034600013F0800FFAD11E4B1A22DA601C4B9B68B6
:1034700013F0020FFAD01A4B9B6813F0800FFAD1A9
:10348000174B0022DA6003F5504308229A61144B6F
:103490009B6813F0020FFAD0114B9B6813F0800F5A
:1034A000FAD10F4B6922DA600D4B9B6813F0020FC3
:1034B000FAD00B4B9B6813F0800FFAD1084B3622E1
:1034C000DA6003F550434FF400229A61032900F2B9
:1034D000BA80DFE811F0A700F700D400E60000BFD3
:1034E00000300140804B9B6813F0020FFAD07E4BF6
:1034F0009B6813F0800FFAD17B4B2A22DA6003F528
:1035000050434FF400229A61774B9B6813F0020FEF
:10351000FAD0754B9B6813F0800FFAD1724B0022E2
:10352000DA6003F5504308229A616F4B9B6813F0F1
:10353000020FFAD06C4B9B6813F0800FFAD16A4BE4
:103540001A22DA60684B9B6813F0020FFAD0664BC0
:103550009B6813F0800FFAD1634B0022DA6003F509
:10356000504308229A61604B9B6813F0020FFAD017
:103570005D4B9B6813F0800FFAD15B4B6922DA60D8
:10358000594B9B6813F0020FFAD0574B9B6813F00E
:10359000800FFAD1544B2B22DA6003F550434FF4DD
:1035A00000229A61504B9B6813F0020FFAD04E4BE9
:1035B0009B6813F0800FFAD14B4B0022DA6003F5C1
:1035C000504308229A61484B9B6813F0020FFAD0CF
:1035D000454B9B6813F0800FFAD1434B0122DA6010
:1035E000414B9B6813F0020FFAD03F4B9B6813F0DE
:1035F000800FFAD13C4B0022DA6003F550430822D9
:103600009A61394B9B6813F0020FFAD0364B9B68D6
:1036100013F0800FFAD1A023334AD36003705023F4
:10362000437041E7304B9B6813F0020FFAD02E4BEA
:103630009B6813F0800FFAD12B4B6822DA6003F5F8
:10364000504308229A610171274B9B6813F0020FC7
:10365000FAD0254B9B6813F0800FFAD1224B2C2215
:10366000DA6003F550434FF400229A611E4B9B68C9
:1036700013F0800FFAD11D4B08229A6170471A4B44
:103680009B6813F0020FFAD0174B9B6813F0800F62
:10369000FAD1154BA822DA6003F5504308229A614B
:1036A000D1E7114B9B6813F0020FFAD00E4B9B68C9
:1036B00013F0800FFAD108230B4AD36002F5504271
:1036C0009361C0E7084B9B6813F0020FFAD0064BDA
:1036D0009B6813F0800FFAD1034BC822DA6003F520
:1036E000504308229A61AEE70030014000000240DA
:1036F0001A4B1B6813F0010FFAD1194B4FF44462B7
:10370000DA6043794FF4C84202FB03030633134ADD
:10371000D3604FF448535360437983F001034371FE
:10372000104B9B6813F0800FFAD10E4B1B6813F4FB
:10373000006F0CD10B4B1A6822F040021A601A6815
:1037400042F400621A601A6842F040021A60034AAA
:10375000136843F001031360704700BF88640240A0
:10376000006402400030014010B40022B2F5485F0E
:1037700009D243794FF4485404FB032300EB43037D
:10378000D9800132F2E75DF8044B7047002905DB70
:10379000B1F5807F03DD4FF4807100E000214180AE
:1037A000014B5963704700BF000400402DE9F84306
:1037B00005460E4600234371DFF87892D9F8302091
:1037C00042F00302C9F83020974C226822F0C00270
:1037D0002260226842F040022260944F3A6822F050
:1037E0000C023A603A6842F004023A60626822F0E1
:1037F00008026260626862607A6822F002027A609F
:103800007A687A60E26822F0C002E260E268E26010
:10381000FA6822F00C02FA60FA68FA60A26822F0F4
:10382000C002A260A26842F0C002A260BA6822F0A0
:103830000C02BA60BA6842F00C02BA600822A261B7
:103840000222BA61D9F8402042F00202C9F84020B1
:10385000DFF8E481C8F80030C8F80430C8F8083050
:103860002D22C8F82820FF22C8F82C20C8F82030C4
:103870004FF48071FFF78AFF6023C8F81830D8F83A
:10388000203043F00103C8F82030236823F440536C
:103890002360236843F400532360236A23F070639A
:1038A0002362236A43F000732362636823F04003BA
:1038B000636063686360E36823F44053E360E36834
:1038C000E360A36823F44053A360A36843F4405328
:1038D000A360D8F8003043F00103C8F800306368F3
:1038E00023F0B0036360E36823F44073E360E368AC
:1038F000E360E36823F44063E360E368E360E36864
:1039000023F44043E360E368E360A36823F4407377
:10391000A360A36843F44073A360A36823F44063E7
:10392000A360A36843F44063A360A36823F4404307
:10393000A360A36843F44043A360D9F8443043F440
:103940008053C9F844303A4B4CF207021A60042203
:103950005A60226A22F470222262226A42F4A02271
:103960002262226A22F470022262226A42F4A002D7
:103970002262226A22F070422262226A42F0A0424F
:103980002262226822F440722260226842F40072AD
:103990002260226822F440622260226842F40062BF
:1039A0002260226822F440422260226842F40042EF
:1039B00022601A6842F040021A604FF40033BB6183
:1039C000C8221346013A23B14EF65D23013BFDD1D7
:1039D000F7E703F1804303F5013302229A613222B3
:1039E0001346013A23B14EF65D23013BFDD1F7E7C3
:1039F0000F4B9B6813F0020FFAD00D4B9B6813F02E
:103A0000800FFAD10A4B1122DA6003F550434FF4CC
:103A100000229A6132221346013A7BB14EF65D23B1
:103A2000013BFDD1F7E700BF000002400004024067
:103A3000003001400038024000040040A74B9B6862
:103A400013F0020FFAD0A54B9B6813F0800FFAD148
:103A5000A24B2122DA6003F550434FF400229A6111
:103A60009E4B9B6813F0020FFAD09C4B9B6813F09F
:103A7000800FFAD1994BB122DA6003F550434FF42D
:103A800000229A61954B9B6813F0020FFAD0934B7A
:103A90009B6813F0800FFAD1904B0122DA6003F596
:103AA000504308229A618D4B9B6813F0020FFAD0A5
:103AB0008A4B9B6813F0800FFAD1884B2C22DA6076
:103AC00003F5504308229A61844B9B6813F0020F60
:103AD000FAD0824B9B6813F0800FFAD17F4B2D22D6
:103AE000DA6003F5504308229A617C4B9B6813F01F
:103AF000020FFAD0794B9B6813F0800FFAD1774B05
:103B0000B322DA6003F550434FF400229A61734BFD
:103B10009B6813F0020FFAD0704B9B6813F0800F74
:103B2000FAD16E4B0522DA6003F5504308229A6100
:103B30006A4B9B6813F0020FFAD0684B9B6813F036
:103B4000800FFAD1654B3A22DA6003F55043082220
:103B50009A61624B9B6813F0020FFAD05F4B9B682F
:103B600013F0800FFAD15D4B3A22DA6003F550432F
:103B700008229A61594B9B6813F0020FFAD0574BF9
:103B80009B6813F0800FFAD1544B0522DA6003F5DD
:103B9000504308229A61514B9B6813F0020FFAD0F0
:103BA0004E4B9B6813F0800FFAD14C4B3A22DA60EF
:103BB00003F5504308229A61484B9B6813F0020FAB
:103BC000FAD0464B9B6813F0800FFAD1434B3A2250
:103BD000DA6003F5504308229A61404B9B6813F06A
:103BE000020FFAD03D4B9B6813F0800FFAD13B4B8C
:103BF000B422DA6003F550434FF400229A61374B48
:103C00009B6813F0020FFAD0344B9B6813F0800FBF
:103C1000FAD1324B0322DA6003F5504308229A614D
:103C20002E4B9B6813F0020FFAD02C4B9B6813F0BD
:103C3000800FFAD1294BC022DA6003F550434FF4CC
:103C400000229A61254B9B6813F0020FFAD0234B98
:103C50009B6813F0800FFAD1204B6222DA6003F5E3
:103C6000504308229A611D4B9B6813F0020FFAD053
:103C70001A4B9B6813F0800FFAD1184B0222DA60BE
:103C800003F5504308229A61144B9B6813F0020F0E
:103C9000FAD0124B9B6813F0800FFAD10F4B04221D
:103CA000DA6003F5504308229A610C4B9B6813F0CD
:103CB000020FFAD0094B9B6813F0800FFAD1074B23
:103CC000C122DA6003F550434FF400229A61034B9E
:103CD0009B6813F0020FFAD002E000BF00300140F1
:103CE000A64B9B6813F0800FFAD1A44BC022DA6078
:103CF00003F5504308229A61A04B9B6813F0020F12
:103D0000FAD09E4B9B6813F0800FFAD19B4BC222D6
:103D1000DA6003F550434FF400229A61974B9B6899
:103D200013F0020FFAD0954B9B6813F0800FFAD175
:103D3000924B0D22DA6003F5504308229A618F4BB3
:103D40009B6813F0020FFAD08C4B9B6813F0800F26
:103D5000FAD18A4B0022DA6003F5504308229A61B7
:103D6000864B9B6813F0020FFAD0844B9B6813F0CC
:103D7000800FFAD1814BC322DA6003F550434FF430
:103D800000229A617D4B9B6813F0020FFAD07B4BA7
:103D90009B6813F0800FFAD1784B8D22DA6003F51F
:103DA000504308229A61754B9B6813F0020FFAD0BA
:103DB000724B9B6813F0800FFAD1704B6A22DA6065
:103DC00003F5504308229A616C4B9B6813F0020F75
:103DD000FAD06A4B9B6813F0800FFAD1674BC4226C
:103DE000DA6003F550434FF400229A61634B9B68FD
:103DF00013F0020FFAD0614B9B6813F0800FFAD1D9
:103E00005E4B8D22DA6003F5504308229A615B4BCA
:103E10009B6813F0020FFAD0584B9B6813F0800F89
:103E2000FAD1564BEE22DA6003F5504308229A612C
:103E3000524B9B6813F0020FFAD0504B9B6813F063
:103E4000800FFAD14D4BC522DA6003F550434FF491
:103E500000229A61494B9B6813F0020FFAD0474B3E
:103E60009B6813F0800FFAD1444B0E22DA6003F501
:103E7000504308229A61414B9B6813F0020FFAD01D
:103E80003E4B9B6813F0800FFAD13C4BE022DA6086
:103E900003F550434FF400229A61384B9B6813F0AE
:103EA000020FFAD0354B9B6813F0800FFAD1334BD9
:103EB0001022DA6003F5504308229A612F4B9B6869
:103EC00013F0020FFAD02D4B9B6813F0800FFAD13C
:103ED0002A4B0E22DA6003F5504308229A61274BE1
:103EE0009B6813F0020FFAD0244B9B6813F0800FED
:103EF000FAD1224B0222DA6003F5504308229A617C
:103F00001E4B9B6813F0020FFAD01C4B9B6813F0FA
:103F1000800FFAD1194B0322DA6003F550430822CF
:103F20009A61164B9B6813F0020FFAD0134B9B68F3
:103F300013F0800FFAD1114B0E22DA6003F55043D3
:103F400008229A610D4B9B6813F0020FFAD00B4BBD
:103F50009B6813F0800FFAD1084B0722DA6003F553
:103F6000504308229A61054B9B6813F0020FFAD068
:103F7000024B9B6813F0800FFAD101E00030014042
:103F8000A64B0222DA6003F5504308229A61A34B44
:103F90009B6813F0020FFAD0A04B9B6813F0800FC0
:103FA000FAD19E4B0722DA6003F5504308229A614A
:103FB0009A4B9B6813F0020FFAD0984B9B6813F052
:103FC000800FFAD1954B0A22DA6003F5504308229C
:103FD0009A61924B9B6813F0020FFAD08F4B9B684B
:103FE00013F0800FFAD18D4B1222DA6003F55043A3
:103FF00008229A61894B9B6813F0020FFAD0874B15
:104000009B6813F0800FFAD1844B2722DA6003F506
:10401000504308229A61814B9B6813F0020FFAD03B
:104020007E4B9B6813F0800FFAD17C4B3722DA600D
:1040300003F5504308229A61784B9B6813F0020FF6
:10404000FAD0764B9B6813F0800FFAD1734B0022A5
:10405000DA6003F5504308229A61704B9B6813F0B5
:10406000020FFAD06D4B9B6813F0800FFAD16B4BA7
:104070000D22DA6003F5504308229A61674B9B6872
:1040800013F0020FFAD0654B9B6813F0800FFAD142
:10409000624B0E22DA6003F5504308229A615F4BAF
:1040A0009B6813F0020FFAD05C4B9B6813F0800FF3
:1040B000FAD15A4B1022DA6003F5504308229A6174
:1040C000564B9B6813F0020FFAD0544B9B6813F0C9
:1040D000800FFAD1514BE122DA6003F550434FF4DF
:1040E00000229A614D4B9B6813F0020FFAD04B4BA4
:1040F0009B6813F0800FFAD1484B1022DA6003F569
:10410000504308229A61454B9B6813F0020FFAD086
:10411000424B9B6813F0800FFAD1404B0E22DA60BD
:1041200003F5504308229A613C4B9B6813F0020F41
:10413000FAD03A4B9B6813F0800FFAD1374B032229
:10414000DA6003F5504308229A61344B9B6813F000
:10415000020FFAD0314B9B6813F0800FFAD12F4B2E
:104160000322DA6003F5504308229A612B4B9B68C7
:1041700013F0020FFAD0294B9B6813F0800FFAD18D
:10418000264B0F22DA6003F5504308229A61234B35
:104190009B6813F0020FFAD0204B9B6813F0800F3E
:1041A000FAD11E4B0622DA6003F5504308229A61C9
:1041B0001A4B9B6813F0020FFAD0184B9B6813F050
:1041C000800FFAD1154B0222DA6003F55043082222
:1041D0009A61124B9B6813F0020FFAD00F4B9B6849
:1041E00013F0800FFAD108230C4AD36002F5504235
:1041F00093610A4B9B6813F0020FFAD0074B9B6840
:1042000013F0800FFAD1054B0A22DA6003F5504310
:1042100008229A61014B9B6802E000BF0030014018
:1042200013F0020FF6D05A4B9B6813F0800FFAD1AF
:10423000574B1322DA6003F5504308229A61544B1E
:104240009B6813F0020FFAD0514B9B6813F0800F5C
:10425000FAD14F4B2622DA6003F5504308229A61C7
:104260004B4B9B6813F0020FFAD0494B9B6813F03D
:10427000800FFAD1464B3622DA6003F5504308220C
:104280009A61434B9B6813F0020FFAD0404B9B6836
:1042900013F0800FFAD13E4B0022DA6003F5504351
:1042A00008229A613A4B9B6813F0020FFAD0384B00
:1042B0009B6813F0800FFAD1354B0D22DA6003F5BD
:1042C000504308229A61324B9B6813F0020FFAD0D8
:1042D0002F4B9B6813F0800FFAD12D4B0E22DA6022
:1042E00003F5504308229A61294B9B6813F0020F93
:1042F000FAD0274B9B6813F0800FFAD1244B3A2257
:10430000DA6003F550434FF400229A61204B9B681A
:1043100013F0020FFAD01E4B9B6813F0800FFAD1F6
:104320001B4B0522DA6003F5504308229A61184BB3
:104330009B6813F0020FFAD0154B9B6813F0800FA7
:10434000FAD1134B2922DA6003F550434FF40022CF
:104350009A6131462846FEF7E7FF0E4A136B43F495
:10436000800313630C4B00221A600B4B1B6813F085
:10437000010FFAD1084B094A1A6007225A61084A0C
:104380009A600C3A536843F002035360BDE8F88327
:10439000003001400038024088640240402C820610
:1043A0000C30014010B50D4C0D4B236000F0ACF902
:1043B00000F000FA00F028FA00F038FA00F0C6FA2F
:1043C000012211464FF4E130FDF72AFF0221206857
:1043D000FFF7ECF900F012F810BD00BF100A002042
:1043E000140A002008B5FFF7DDFF082000F02CFDBF
:1043F000002000F0EFFC002008BD704708B54FF426
:10440000C870FEF7F7FDFEF767F8FDF787FEFEF7C9
:104410004FFF024B01221A6008BD00BF50D200209E
:1044200008B5104B1B68012B19D10F4B0F229A8234
:1044300064220521002000F0F9FD642219210120E9
:1044400000F0F4FD4FF496722D21032000F0EEFDF4
:104450004FF47A724121022000F0E8FD08BDFFF719
:10446000CDFFE2E750D200201CD2002070B50646F6
:10447000012000F061FD0028FAD13446054D0FCD32
:104480000FC495E8030084E80300012000F08AFDD2
:10449000304670BD1CD2002010B50446032000F049
:1044A0004BFD0028FAD1054B186820609B88A3803B
:1044B000032000F077FD204610BD00BF34D200205D
:1044C00010B50446052000F037FD0028FAD1054B51
:1044D00093E8030084E80300052000F063FD204614
:1044E00010BD00BF3CD2002070B582B0042000F0A7
:1044F00023FD08B102B070BD0DF1020201A90DF15A
:104500000600FDF719FE042000F04CFD012000F02C
:1045100013FD0028EED1BDF90600234B1880BDF92C
:1045200004105980BDF902509D80B3F91430002B5E
:1045300010DD013B1BB21C4A93821C4C22681044C4
:1045400020601B4C2268114421601A4C22682A44C6
:1045500022601BB1012000F025FDCBE7A3F17733EA
:1045600083FB00452C18C517C5EBE4050E4CE58010
:1045700083FB01656E18CD17C5EBE605258183FB2E
:1045800002531344D217C2EBE302628101FB01F133
:1045900000FB001300EE103AB8EEC00A00F0A8FBD2
:1045A00084ED030AD6E700BF1CD2002044D20020CD
:1045B00048D200204CD2002000B583B0042000F087
:1045C000BBFC10B103B05DF804FB0DF1020201A9C0
:1045D0000DF10600FEF783FE042000F0E3FC03204B
:1045E00000F0AAFC0028EDD1064BBDF806201A8089
:1045F000BDF804205A80BDF802209A80032000F004
:10460000D1FCDFE734D2002000B583B0042000F0F5
:1046100093FC10B103B05DF804FB01A96846FEF7F6
:1046200055F8042000F0BEFC052000F085FC0028B1
:10463000F0D1044B019A5A60009A1A60052000F0EC
:10464000B1FCE7E73CD2002008B500F0F1F9094BD6
:104650001880F62101FB00F0074B198801EBA0112F
:104660000A3109B2092900DC0A21044B1868FFF756
:104670008DF808BD54D20020EE040020100A00205E
:104680001C4B1B68002B0EDD1A4B1A68013A1A608E
:104690001B6843B9184B04225A61184B4FF48072BF
:1046A000C3F880211A60164B1B68002B0EDD144BDB
:1046B0001A68013A1A601B6843B90F4B08225A6105
:1046C0000E4B4FF40072C3F880211A600D4B1B682B
:1046D000002B0EDD0B4B1A68013A1A601B6843B9B8
:1046E000054B10225A61054B4FF48062C3F88021BC
:1046F0001A60704760D20020003C014000E100E0F9
:1047000068D2002070D20020012383F31088244B4C
:104710004FF4E0621A60234A136843F48033136055
:10472000204B1B6813F4003FFAD01E4B1E4A5A6000
:104730001A6842F080721A601A6C42F080521A6451
:10474000A3F5E4334FF4C0321A60184B5B6813F4DE
:10475000804FFAD0154B5B6813F4803FFAD0134AB0
:10476000136843F400331360104B5B6813F4003F8D
:10477000FAD00C4B1B6813F0007FFAD0084A13687C
:1047800043F005031360074B094A9A60054B9B6889
:1047900003F00C03082BF9D1002383F31088704732
:1047A000003C024000380240042D400800700040E8
:1047B00002940800124A136B43F040031363114B39
:1047C0001A6822F040621A601A6842F080621A6029
:1047D0005A6822F400525A605A685A609A6822F065
:1047E00040629A609A6842F080629A60DA6822F0C9
:1047F0004062DA60DA68DA604FF400529A6170471A
:104800000038024000180240054B00221A6005499A
:1048100059609A6007211960034B1A60704700BF06
:1048200010E000E020BF02005CD200203C4B5A6C3C
:1048300042F480425A641A6B42F020021A63A3F5D4
:1048400010531A6822F030021A601A681A60DA6887
:1048500022F03002DA60DA6842F01002DA601A6898
:1048600022F0C0021A601A681A60DA6822F0C002E8
:10487000DA60DA6842F04002DA601A6822F44072C4
:104880001A601A681A60DA6822F44072DA60DA682C
:1048900042F48072DA601A6822F440621A601A6880
:1048A00042F480621A60DA6822F44062DA60DA6800
:1048B000DA605A6822F020025A605A685A609A6890
:1048C00022F440629A609A689A604FF400129A61EA
:1048D000A3F55C439A6822F47F429A609A6842F496
:1048E000AA429A60DA6822F00F02DA60DA6842F0CF
:1048F0000502DA6003F58063DA6842F01C02DA60D0
:104900001A6842F01C021A60064B4FF480721A605B
:104910004FF400721A604FF480621A60704700BF53
:104920000038024000E100E0014B1878704700BFFA
:1049300064D20020014B1878704700BF6CD2002071
:10494000014B1878704700BF74D20020364B1A6BA9
:1049500042F020021A635A6C42F480625A64A3F552
:1049600010531A6822F440321A601A6842F48032F6
:104970001A60DA6822F44032DA60DA68DA605A687B
:1049800022F480725A605A685A609A6822F440325F
:104990009A609A689A604FF480729A611A6822F459
:1049A00040121A601A6842F480121A60DA6822F41F
:1049B0004012DA60DA68DA605A6822F480625A607B
:1049C0005A685A609A6822F440129A609A689A600B
:1049D0004FF080629A611A6822F440521A601A6895
:1049E00042F440521A60DA6822F44052DA60DA681F
:1049F000DA60A3F57243DA6A22F47002DA62DA6AE4
:104A0000DA625A6B22F01F025A635A6B42F00402B8
:104A10005A63064A4FF4803151604FF040725A6039
:104A200001229A60704700BF003802400023014015
:104A3000064A936843F080439360044B1B6813F06D
:104A4000020FFAD0014BD86C80B2704700220140AF
:104A500008B5074A136801331360FFF711FE002001
:104A600000F006FB034B1B6803B1984708BD00BF6D
:104A70005CD2002058D20020154B4FF48072C3F84E
:104A80008020BFF34F8FBFF36F8F1249042048611E
:104A9000C3F88021104B1B786BB9CA6822F004025E
:104AA000CA608A6802438A600B4B01221A700B4B62
:104AB00032221A607047074B9A6822F004029A600B
:104AC000DA6842F00402DA60034B00221A70EEE763
:104AD00000E100E0003C014064D2002060D20020F0
:104AE000154B4FF40072C3F88020BFF34F8FBFF314
:104AF0006F8F124908204861C3F88021104B1B7842
:104B00006BB9CA6822F00802CA608A6802438A60E8
:104B10000B4B01221A700B4B32221A607047074B65
:104B20009A6822F008029A60DA6842F00802DA60B5
:104B3000034B00221A70EEE700E100E0003C014068
:104B40006CD2002068D20020154B4FF48062C3F86D
:104B50008020BFF34F8FBFF36F8F12491020486141
:104B6000C3F88021104B1B786BB9CA6822F0100281
:104B7000CA608A6802438A600B4B01221A700B4B91
:104B800032221A607047074B9A6822F010029A602E
:104B9000DA6842F01002DA60034B00221A70EEE786
:104BA00000E100E0003C014074D2002070D20020FF
:104BB00010B5022000F0C0F90028FAD1124B1C6891
:104BC0002046FDF726FC42F21072A379DBB2012BDE
:104BD00005D0013AF9D1022000F0E4F913E0A3680E
:104BE0001A780A4B1A70A3685A78094B1A70022077
:104BF00000F0D8F9074B01221A704EF660221146D8
:104C0000042000F013FA10BD1C23080877D20020FE
:104C100075D2002076D2002010B5094B1B7863B105
:104C2000062000F089F90028FAD1064B93F90040DC
:104C3000062000F0B7F9204610BDFFF7B9FFEFE7F7
:104C400076D2002075D2002010B5094B1B7863B1D5
:104C5000062000F071F90028FAD1064B93F90040C4
:104C6000062000F09FF9204610BDFFF7A1FFEFE7F7
:104C700076D2002077D2002008B5062000F05CF93B
:104C80000028FAD1114A1368591E1160002B16DD55
:104C90000F4A137801335BB213703B2B0BDD0D4AC7
:104CA000137801335BB21370094A00211170172B7E
:104CB00001DD084B1970062000F074F908BD064BA1
:104CC00000221A70014B03221A60E1E70C03002056
:104CD00077D2002075D2002076D2002051EC100B44
:104CE00010EE102A21F0004343EC102B704700BF58
:104CF00008B52DED028BB0EE408A00F021F80E4B86
:104D000093F9003001330BD0B4EE488AF1EE10FA7B
:104D100006D6DFED0A8AB4EEE88AF1EE10FA02D484
:104D2000BDEC028B08BD00F00FF888EEA80ABDECC0
:104D3000028B2123036008BD100300200000000047
:104D4000B1EEC00A704700BF014B1868704700BF42
:104D50001403002070B50D4D0D4C641BA4100026EB
:104D6000A64209D10B4D0C4C00F024FD641BA4108D
:104D70000026A64205D170BD55F8043B9847013680
:104D8000EEE755F8043B98470136F2E7202608087D
:104D90002026080820260808242608080A449142EC
:104DA00000F1FF3300D1704710B511F8014B03F843
:104DB000014F9142F9D110BD054BD3F8882042F440
:104DC0007002C3F888204FF000629A60704700BFFD
:104DD00000ED00E02DE9F04107461A4B1E68EFF3A5
:104DE00011852B09013B072B02D9802383F31188FE
:104DF000337C03F0FF0443B101241CB125F00F05FF
:104E000085F311882046BDE8F08100F067FB0D4B6B
:104E1000D3F80880012333747774337CDBB2012B21
:104E20000DD0337CDBB2022BE7D1D8F804100A4650
:104E30004046FBF7A3FD404600F0C1F9DDE7022341
:104E40003374EEE7E423080870B5144B9B6898426E
:104E50001FD2124B5B6853F82060337C012B1AD8A9
:104E6000EFF311852B09013B072B02D9802383F334
:104E70001188304600F098F9044628B125F00F0556
:104E800085F31188204670BD3146044800F0C4F90E
:104E9000F4E70324F6E70324F4E700BF002408083E
:104EA00070B5224B1B681968214A9268904238D22B
:104EB0001F4A526852F820502A7C012A33D81A7FA0
:104EC00022B100221A775A6982F310889A7F12B1B0
:104ED00000229A7762B6EFF311863309013B072B64
:104EE00002D9802383F31188A9420BD0284600F011
:104EF0005BF9044680B144B126F00F0686F31188B1
:104F0000204670BDAB6805229A70084B1B681B6871
:104F100008495868FBF742FD2946054800F09EF90C
:104F2000E9E70324ECE70324EAE700BFE4230808E9
:104F30000024080805550008F0B4184B1B681D68CC
:104F4000174B1B69834227D9154BDB6853F8201098
:104F50000868AA680C795678EFF311831B095F1E65
:104F6000072F02D9802787F31188B44204D95470DF
:104F700014F0800F0BD1002385601B0183F311888F
:104F800053680360067151600020F0BC7047C4F1A3
:104F90000F0303F00F03EFE70320F6E7E42308080D
:104FA0000024080838B51F4B1B6819681E4B1B6985
:104FB000984234D28A681C4BDB6853F8203018685A
:104FC000EFF311831B09013B072B02D9802383F3E5
:104FD000118853681B681B685360A3B10379537031
:104FE00013F0800F0AD10024002585600E4800F0E0
:104FF0007BF9230183F31188284638BDC3F10F03E1
:1050000003F00F04F0E74B7E537013F0800F01D1D3
:105010000024E9E7C3F10F0303F00F04E4E70320E2
:10502000EBE700BFE42308080024080838B50C4665
:1050300013460E4A126A904215D20C4AD26952F8AF
:1050400020104868EFF311852A09013A072A02D98E
:10505000802282F31188224600F020FA25F00F0307
:1050600083F3118838BD0320FCE700BF0024080843
:1050700038B5124B1D68124B9B6998421CD2104BDD
:105080005B6953F82000EFF311842309013B072BE0
:1050900002D9802383F3118800F09AF92B681B7CD6
:1050A000012B05D924F00F0484F31188002038BDAA
:1050B000034800F019F9F5E70320F8E7E4230808AE
:1050C000002408088268002002E050681B685360D2
:1050D00053682BB11B68002199600028F6D1F4E7D2
:1050E0007047000010B50446134B1B6800225A7726
:1050F0001A7F22B100221A775A6982F310889A7FA8
:1051000012B100229A7762B6EFF311831B09013BBB
:10511000072B02D9802383F31188237C022B06D02E
:105120002046FFF7CFFF05496068FBF737FC2046B4
:10513000FFF7C8FFF7E700BFE4230808055500089C
:10514000836804229A70704738B5044683685D7896
:10515000FFF7F6FFFF2D06D015F0800F08D10023D2
:1051600083F3118862B6636998472046FFF7BAFF58
:10517000C5F10F052D01EDB285F31188F2E70000AE
:1051800008B5084B1B681B7CDBB2022B05D1054B15
:105190005B68002BF5D09847F3E7024B986800F066
:1051A00000FA08BDE423080882681378817E8B42E8
:1051B00003D20133137000207047042070478268C7
:1051C000037E53701378013BDBB213700BB99370FD
:1051D000704701239370704708B50246054843683D
:1051E00053F822108A68137801331370002200F0FC
:1051F0008BF808BD0024080808B50B46917809B95A
:105200000121917081680A68826000220A601A4652
:10521000043000F027FA08BD70B58A680E4B1B6891
:105220001868846866785578AE420FD29A68156817
:105230009D60002515600225A5705160DC68146032
:10524000DA60196000F08EF9012070BD1846FFF792
:10525000D3FF0020F9E700BFE423080808B58A68F7
:10526000024B1868FFF7C8FF08BD00BFE423080819
:105270002DE9F0411B4B1C682568AE680D60B378C2
:10528000042B15D0E1680B68E3602B7E737001235B
:10529000B370231D2A461D46184600F0E3F929463F
:1052A000104800F09BF9C0B127683846BDE8F0818E
:1052B000211D0C4800F0DCF980462768BD4208D06B
:1052C0002846FFF77CFFA368C8F80030C4F80880C0
:1052D000EBE73378013B3370F5E7E3685F682760FD
:1052E000E3E700BFE423080810B506480468211D61
:1052F00000F074F920B1216800F034F9012010BDEC
:105300000020FCE7E4230808F8B5114B1B68186877
:105310008468DE68A578042D0FD08C684D7E677890
:10532000AF4200D26570196052B1DA60DA6851603C
:10533000DB681E6000F016F9F8BD0225A570ECE7E9
:105340009A6814689C6000241460DA60EEE700BF7D
:10535000E4230808F0B4D0F800C0DCF80030DCF832
:105360000450086842600126002701E01F462368B8
:10537000ABB1A6B11C686068854205D28242F5D205
:105380009542F3D20026F3E7954204D3824204D338
:105390001F462368ECE70026EAE70026E8E72FB17E
:1053A0003A6811600A681360F0BC7047CCF80010CE
:1053B000F8E738B5036844685B68A51AAB4203D8C0
:1053C0001A44FFF7C7FF38BD1B1B13445A1EF8E7EA
:1053D00070B505460668726843689A4208D3002291
:1053E000726034681CB123685B68934203D070BD5F
:1053F00001327260F5E723461968032008721846E7
:105400000B681BB1196849689142F5D00268002108
:1054100011603360236821461C68284600F026F896
:10542000002CF7D1E3E7000038B5037B022B11D045
:10543000032B14D013B10024204638BD45682846FC
:10544000FFF7B2FE04460028F6D129460648FFF7CA
:1054500005FFF1E78068FFF7BBFF0024ECE7036876
:1054600098470024E8E700BF0024080838B505463F
:105470000C4601F10800FFF7D7FF23681A7A032AC8
:1054800000D038BDDA6812B900221A72F9E7022199
:10549000197221462846FFF78CFFF2E738B50C68F1
:1054A000257A012D18D810D1E360036841685B6844
:1054B000881A834205D81A446260042323720020AC
:1054C0000BE05B1A1A44013AF6E7E3600223237209
:1054D000FFF76FFF002000E0072038BD08B5FBF79D
:1054E0007BFA044A136843F06043136000F0D2F87B
:1054F00008BD00BF20ED00E008B5002000F042F933
:1055000008BD000070B582B0144B1C68E5682B68BC
:1055100073B15E682268127C022A0CD001A910487F
:10552000FFF7A6FE0146019800F02DF802B070BD0D
:105530000A4A9668EEE7E3606868FFF740FE266077
:10554000B36804229A70A3682B60A560FBF752FA37
:1055500071683046FBF7F2F9E8E700BFE42308087A
:105560000024080808B5034608468A689278022A8B
:1055700004D05A684968FBF701FA08BD5A684968BF
:10558000FBF7CCF9F9E708B508468B689B78022B46
:1055900003D04968FBF7E6F908BD4968FBF7CEF987
:1055A000FAE710B5036841681C680B681A461B6867
:1055B0000BB19C42FAD10A60FBF7C0F910BD10B4E0
:1055C0004B689A68C4680C60C16003605B7E517868
:1055D000994200D253705DF8044B704770B5024693
:1055E0000B4600680968C46884B16468A1B1A26808
:1055F00056784D68AD686D78AE420FD20225957031
:105600000A681A60FFF7DBFF204670BD41B194685D
:10561000A26802259570F3E70C46F5E70024F3E74E
:105620000C46F1E7F0B44B689C6816461AB11F7E31
:105630000368002506E06778FAE76278BA4208D383
:105640001D461B682BB15A689468002EF5D0127E57
:10565000F4E725B1296000200B60F0BC70470160C1
:105660000120F9E708B54A600122FFF7DBFF08BD1A
:1056700070B505460468E6683368E360FFF7AEFF7F
:10568000E36808B1304670BD13B15B682360F9E789
:10569000AB68FBE71A4B1A6822F0F0021A601A682E
:1056A00042F0F0021A60174A116841F480711160EB
:1056B000196821F470411960196841F4704119604A
:1056C000116841F400711160196821F470011960CA
:1056D000196841F470011960136843F48063136022
:1056E000094B1A6822F470021A601A6842F44002E8
:1056F0001A60064A136843F040031360704700BF06
:1057000008E400E000E100E024E400E004E100E05F
:1057100008B5024800F032F808BD00BF794A000819
:1057200008B5024800F02AF808BD00BFE14A0008A9
:1057300008B5024800F022F808BD00BF494B000838
:1057400008B5024800F01AF808BD00BF6923000838
:1057500010B5EFF311842309013B072B02D98023F5
:1057600083F3118862B60448FFF7BEFD72B624F0D9
:105770000F0484F3118810BD0024080808B5804781
:1057800008BD000038B50A4B1B681D68EFF3118493
:105790002309013B072B02D9802383F31188FFF7EC
:1057A0001BFD24F00F0484F31188284638BD00BF88
:1057B000E4230808F8B500BFF8BC08BC9E46704753
:0C57C000F8B500BFF8BC08BC9E4670475E
:1057CC000500410096000A00050045009600060001
:1057DC000400050004002800800000006A0003009B
:1057EC00050005000500230005003C0096000F0095
:1057FC003C003D003C003E003C003F004600FBFFEF
:10580C007E00FBFF440019003E0010004100FAFF2F
:10581C001000FAFF66726F6D20000000148C0008F7
:10582C00040011009C8C0008070011007C8D0008FE
:10583C0009001100D48E00080900130040900008E4
:10584C000C001100EC9100080B001100649300088F
:10585C0004001100EC93000806001500EC940008FD
:10586C0006001500EC95000807001100EC960008E6
:10587C00090011003498000804001400C0980008B6
:10588C0007001100C0990008050011005C9A00087F
:10589C00080013007C9B000809001100C49C000840
:1058AC00090011000C9E000809001100549F00080B
:1058BC00090011009CA0000809001100E4A10008D7
:1058CC00090011002CA300080900110074A40008A1
:1058DC0009001100BCA500080900110004A700086C
:1058EC00090011004CA8000805001100E8A80008E8
:1058FC000500140098A9000808001100BCAA0008B3
:10590C000900110004AC00080800110028AD0008C3
:10591C000800110038AE00080E001500B0B00008E9
:10592C000A00110018B200080A00110080B3000828
:10593C000A001100F8B400080A00110070B6000843
:10594C0009001100B8B700080900110000B90008DF
:10595C000A00110078BA00080B00110014BC0008F2
:10596C0005001100C4BC0008090011000CBE0008A1
:10597C000B00110084BF000809001100CCC0000806
:10598C000D001100BCC200080B00110058C4000827
:10599C000B001100E0C500080A00110048C7000800
:1059AC000B00130000C900080A00110078CA000897
:1059BC000A001100E0CB00080900110038CD0008E6
:1059CC000B001100C0CE00080A00110028D00008FE
:1059DC000E00110028D200080A00110090D3000814
:1059EC000A001100F8D40008080011003CD6000889
:1059FC000500140004D700080800130024D8000880
:105A0C0005001400D8D8000807001100C8D90008F8
:105A1C0007001300E0DA000806001100A0DB000804
:105A2C0009001100E8DC00080900110030DE000854
:105A3C00080011008C6C000809001100D46D0008DE
:105A4C0008001100F86E000806001100D86F00085D
:105A5C00090015006C71000809001100B4720008EF
:105A6C00040011003C7300080500150028740008A0
:105A7C00090011006075000804001100E8750008A9
:105A8C000D001100D87700080900110020790008DA
:105A9C0009001100687A000809001500FC7B000859
:105AAC0009001500907D000806001100607E0008BA
:105ABC0008001100847F00080600110054800008C3
:105ACC00090011009C81000808001100C082000828
